S0100000456E7472656761332E737265631B
S11300000C9454000C9469000C9469000C946900DD
S11300100C9469000C9469000C9469000C946900B8
S11300200C9469000C9469000C9469000C946900A8
S11300300C9469000C9469000C9469000C94690098
S11300400C9469000C9469000C9469000C94690088
S11300500C9469000C9469000C9469000C94690078
S11300600C9469000C946900001F000000001F003C
S1130070001F101010101F00001F181818181F0060
S1130080001F1C1C1C1C1F00001F1E1E1E1E1F0008
S1130090001F1F1F1F1F1F0003070F1F0F07030051
S11300A0181C1E1F1E1C180011241FBECFEFD8E001
S11300B0DEBFCDBF11E0A0E0B1E0E0ECF7E002C0AC
S11300C005900D92A632B107D9F70E94CB020C9489
S11300D0DE030C94000065B1982F9074492F50E012
S11300E055954795559547955595479555954795F4
S11300F0982F9078292F30E0022E232F000C221FF6
S1130100330B000C221F331F962F997F492B242B6E
S113011025B968B1982F9071492F50E055954795AE
S11301205595479555954795982F9072292F30E00E
S1130130359527953595279535952795962F997F4C
S1130140492B242B28B99BB192609BB99BB1916038
S11301509BB925ED2A95F1F700009BB19E7F9BB9D1
S11301609BB19D7F9BB995ED9A95F1F7000065B120
S113017020E1829FC0011124AC014074552755959C
S113018047955595479555954795559547959C01A0
S113019020783327022E232F000C221F330B000C50
S11301A0221F331F362F397F432B242B25B948B107
S11301B09C012071332735952795359527953595DD
S11301C02795807299279595879595958795959507
S11301D08795942F997F292B822B88B98BB18260C4
S11301E08BB98BB181608BB985ED8A95F1F70000ED
S11301F08BB18E7F8BB98BB18D7F8BB995ED9A9531
S1130200F1F70000089565B1982F9074492F50E0DC
S113021055954795559547955595479555954795C2
S1130220982F9078292F30E0022E232F000C221FC4
S1130230330B000C221F331F962F997F492B242B3D
S113024025B968B1982F9071492F50E0559547957D
S11302505595479555954795982F9072292F30E0DD
S1130260359527953595279535952795962F997F1B
S1130270492B242B28B99BB191609BB9EFE9FFE08E
S11302803197F1F700C000009BB19E7F9BB9EFE965
S1130290FFE03197F1F700C0000065B1F0E18F9FF6
S11302A0C0011124AC0140745527559547955595C7
S11302B0479555954795559547959C012078332743
S11302C0022E232F000C221F330B000C221F331F7E
S11302D0362F397F432B242B25B948B19C0120713B
S11302E0332735952795359527953595279580722C
S11302F09927959587959595879595958795942FA5
S1130300997F292B822B88B98BB181608BB98FE9B6
S11303109FE00197F1F700C000008BB18E7F8BB98D
S1130320EFE9FFE03197F1F700C00000089581E0A4
S11303300E94030108950F931F93CF93DF930097B7
S113034069F0D62F8C01C0E007C0F801EC0FF11D55
S113035080810E946B00CF5FCD17B8F3DF91CF91FE
S11303601F910F910895623031F0633031F06130A4
S113037029F4805C03C08C5E01C08C5A80680E94A2
S113038003010895EF92FF920F931F93CF93DF938E
S11303907C01862F90E0880F991F880F991F880F82
S11303A0991F8064C0E0D0E00DC0F701EC0FFD1F81
S11303B0149101E0080F0E940301812F0E946B0039
S11303C02196802FC830D10580F3DF91CF911F9102
S11303D00F91FF90EF900895CF93DF938FE59AEEFE
S11303E00197F1F700C0000085B1897F85B988B114
S11303F0897F88B91BB887B1866087B984B1866064
S113040084B984B1866084B987B1866087B98AB1BA
S113041083608AB985B1897F85B988B1866088B9D6
S11304208BB181608BB98FE99FE00197F1F700C030
S113043000008BB18E7F8BB98FE99FE00197F1F7B4
S113044000C0000085B1897F85B988B1866088B90C
S11304508BB181608BB98FE99FE00197F1F700C000
S113046000008BB18E7F8BB98FE99FE00197F1F784
S113047000C0000085B1897F85B988B1897F846017
S113048088B98BB181608BB98FE99FE00197F1F74F
S113049000C000008BB18E7F8BB98FE99FE001977C
S11304A0F1F700C0000088E20E9403018CE00E9482
S11304B0030160E0C0E00AC0D1E0D60F8C2F90E0C9
S11304C088599F4F0E94C201C85F6D2FC034A0F3AA
S11304D0DF91CF910895EF92FF920F931F93CF93E3
S11304E0DF9300D000D01F92CDB7DEB77B01FE01B1
S11304F0319625E0DF011D922A95E9F724E030E0EA
S11305000FC06AE070E00E94B603E1E0F0E0EC0F97
S1130510FD1FE20FF31F8083862F972F215031098F
S1130520009779F7BFEFEB16FB0681F403C00F5F6A
S11305301F4F02C000E010E0E1E0F0E0EC0FFD1F0F
S1130540E00FF11F2081222391F304C005E010E0A5
S11305500E191F09992384F48DE20E946B000CC0CC
S1130560E1E0F0E0EC0FFD1FE00FF11F8081805D02
S11305700E946B000F5F1F4F053011058CF30F9025
S11305800F900F900F900F90DF91CF911F910F91CB
S1130590FF90EF900895CF93DF9300D000D01F9287
S11305A0CDB7DEB787B18E7F87B90E94EC010E9478
S11305B0970160E080E00E94B30163E080E091E095
S11305C00E949B018E010B5F1F4F9E012C5F3F4FCA
S11305D0AE014D5F5F4FBE016E5F7F4FCE0101964E
S11305E00E945A03882379F10E94970166E084E00F
S11305F091E00E949B018B8162E070E090E00E9498
S11306006B028CE20E946B008C8162E070E090E0EF
S11306100E946B0261E080E00E94B30169E08BE01C
S113062091E00E949B01898162E070E090E00E9469
S11306306B028CE20E946B008A8162E070E090E0C1
S11306400E946B0205C060E185E191E00E949B017C
S11306502FEF87EA91E6215080409040E1F700C0F7
S1130660000060E080E00E94B301ACCFFC01108286
S113067020E030E01BC0309BFECF85ED8A95F1F77A
S11306800000309B11C067E070E0621B730B41E017
S113069050E002C0440F551F6A95E2F78081482B51
S11306A0408380EA8A95F1F72F5F3F4F2830310568
S11306B014F30895AF92BF92CF92DF92EF92FF921C
S11306C00F931F93CF93DF935C016B017A01E901D0
S11306D087B1816087B988B1816088B92AE12A9598
S11306E0F1F700C088B18E7F88B98FEF90EEE0E01B
S11306F081509040E040E1F700C0000088B1816083
S113070088B9F0EAFA95F1F787B18E7F87B98FE758
S113071092E00197F1F700C00000C5010E94360382
S1130720C6010E943603C7010E943603CE010E940F
S11307303603C8010E943603F5013081F601908129
S1130740F70120818881930F920F980FF80120817F
S113075081E0921380E0DF91CF911F910F91FF9080
S1130760EF90DF90CF90BF90AF90089597FB072E46
S113077016F4009407D077FD09D00E94CA0307FC41
S113078005D03EF4909581959F4F0895709561959D
S11307907F4F0895AA1BBB1B51E107C0AA1FBB1FB3
S11307A0A617B70710F0A61BB70B881F991F5A95F9
S11307B0A9F780959095BC01CD010895F894FFCFD9
S11307C06173640054454D503A200048554D4544EA
S11307D041443A20004572726F7220656E206C6548
S10907E0637475726100F0
S9030000FC
