:100000000C9434000C9451000C9451000C94510049
:100010000C9451000C9451000C9451000C9451001C
:100020000C9451000C9451000C9451000C9451000C
:100030000C9451000C9451000C9451000C945100FC
:100040000C9451000C9451000C9497020C945100A4
:100050000C9451000C9451000C9451000C945100DC
:100060000C9451000C94510011241FBECFEFD8E026
:10007000DEBFCDBF11E0A0E0B1E0ECE7FAE002C0E6
:1000800005900D92A839B107D9F721E0A8E9B1E0B0
:1000900001C01D92A63BB207E1F70E94DA010C9461
:1000A0003C050C94000060EA71E00E945A0080EA6E
:1000B00091E00895A4E0B0E0E0E6F0E00C940F05D4
:1000C0006C017B01E091B001F091B101309729F012
:1000D0006CEA71E009958C0102C00FEF1FEFF60189
:1000E00040815181628173818091AC019091AD0119
:1000F000A091AE01B091AF01840F951FA61FB71F4D
:10010000101611064CF4A801012E000C660B770B9B
:10011000840F951FA61FB71F89839A83AB83BC8367
:10012000B701CE0101960E94AF00F7011387028745
:100130002496E8E00C942B05FC010FB6F89460912E
:10014000B2017091B3018091B4019091B5010FBEDD
:10015000309721F060837183828393830895A8E0B0
:10016000B0E0E5EBF0E00C940F058B01FC01608141
:1001700071818281938120E831E541E050E00E9465
:10018000C40469017A012CE330E040E050E00E94B1
:10019000E60429833A834B835C8389819A81AB810E
:1001A000BC81F80160836CE370E00E945C04DC01B8
:1001B000CB01F801A1838283C601069667E070E057
:1001C0000E94700484832DEA3EE840E050E0C701BD
:1001D000B6010E94E60429833A836D837E838F8370
:1001E000988789819A8124E6289F6001299FD00CF5
:1001F00011246D817E818F81988525EB35E040E06B
:1002000050E00E94E60429833A836D837E83E9806F
:10021000FA80EE0CFF1CEE0CFF1CEC0CFD1C8D811B
:100220009E81F5E6EF16F10410F0019604C024E675
:10023000E216F10419F021E030E002C020E030E0E5
:10024000A90144595E4F4817590768F46DE671E0FB
:10025000821B930B0E945C04DC01CB01E80EF91EAB
:10026000CD0120E030E044E6E40EF11CF801F78215
:10027000E68291878087255C3F4F8217930748F479
:100280006FE170E00E945C04DC01CB01F801858322
:1002900022C069E970E0821B930B0E945C04DC01C0
:1002A000CB01F82EFF0CFF0CF80E6DE370E0CD01D2
:1002B0000E945C04DC01CB01E82EEE0C6FE170E0E3
:1002C000CD010E945C04DC01CB0122E0280FF20E7C
:1002D000FE0CF801F582A383F80113861286838150
:1002E0008F5F83832896E8E00C942B051092B90069
:1002F00088E98093B80084E08093BC00089584EA84
:100300008093BC008091BC008823E4F7089580931B
:10031000BB0084E88093BC008091BC008823E4F794
:10032000089584EA8093BC008091BC008823E4F7A0
:1003300081E00895811104C084EC8093BC0003C067
:1003400084E88093BC008091BC008823E4F780910E
:10035000BB00089584E98093BC00089587E60E945D
:10036000E8030E94F2030E94F80380E091E00E94FB
:100370000C040E94FE0378940895809199018823CB
:10038000C1F080919901833791F481E090919801B7
:10039000911180E080939801882329F08EE291E00A
:1003A0000E940C0404C083E491E00E940C041092AB
:1003B00099010895CF93DF93CDB7DEB729970FB694
:1003C000F894DEBF0FBECDBFCE0101960E949C0007
:1003D000CE0101960E9453000E94AE010E94C50208
:1003E0008AE00E94B2020AE911E0F801838386E004
:1003F0000E94B202F801848388E10E94B202F801EF
:10040000858384E10E94B202F801808380E30E9428
:10041000B202F80181838FE00E94B202F801828368
:10042000C8010E945C030E94BD0180919801811166
:10043000FACF8E01075F1F4F9E01285F3F4FAE012D
:10044000495F5F4FBE016A5F7F4FCE0105960E94F4
:100450008C03882309F45DC08AE991E00E940903B6
:100460008DE991E00E94330389E591E00E940C043C
:100470008F810E94280480E691E00E940C048D8107
:100480000E94280485E991E00E940C048DE691E029
:100490000E940C040AE911E0F80183810E94A7027E
:1004A0000E94280485E791E00E940C04F8018481F1
:1004B0000E94A7020E94280485E791E00E940C0494
:1004C000F80185810E94A7020E94280487E791E035
:1004D0000E940C04F80182810E94A7020E94280455
:1004E00081E891E00E940C04F80181810E94A7023A
:1004F0000E94280481E891E00E940C04F8018081A8
:100500000E94A7020E94280485E991E00E940C0441
:1005100004C083E891E00E940C04FFEF27EA81E623
:10052000F15020408040E1F700C000007CCF1F92D6
:100530000F920FB60F9211248F938091C600809373
:1005400099018F910F900FBE0F901F901895982FC3
:1005500092959F70990F292F220F220F920F8F7063
:10056000890F08959DEC899F912D1124969596955C
:100570009695392F330F232F220F220F230F821B23
:1005800020E1929F800D112408950E947601089524
:10059000CF93DF93EC010E947F0180ED90E00E94F9
:1005A000870180E090E00E94870188818F7790E04A
:1005B0000E94870189818F7790E00E9487018A815C
:1005C0008F7390E00E9487010E94AA01DF91CF9172
:1005D0000895CF93DF93EC010E947F0180ED90E0BE
:1005E0000E94870184E090E00E94870188818F73D8
:1005F00090E00E94870189818F7190E00E948701BD
:100600008A8190E00E9487010E94AA01DF91CF9128
:100610000895CF93DF93EC010E947F0180ED90E07D
:100620000E94870180E090E00E9487010E94910172
:1006300081ED90E00E94870180E090E00E949A01A5
:100640008F77888380E090E00E949A018F7789837A
:1006500081E090E00E949A018F738A830E94AA0130
:10066000DF91CF910895CF93DF93EC010E947F013A
:1006700080ED90E00E94870184E090E00E94870175
:100680000E94910181ED90E00E94870180E090E05E
:100690000E949A018F73888380E090E00E949A0103
:1006A0008F71898381E090E00E949A018A830E9481
:1006B000AA01DF91CF910895CF93DF93EC010E94BF
:1006C000C802CE0103960E94E902DF91CF910895FE
:1006D000FC01108220E030E01BC0309BFECF85ED96
:1006E0008A95F1F70000309B11C067E070E0621B53
:1006F000730B41E050E002C0440F551F6A95E2F7CA
:100700008081482B408380EA8A95F1F72F5F3F4F25
:100710002830310514F30895AF92BF92CF92DF9243
:10072000EF92FF920F931F93CF93DF935C016B01C6
:100730007A01E90187B1816087B988B1816088B9A0
:100740002AE12A95F1F700C088B18E7F88B98FEF32
:1007500090EEE0E081509040E040E1F700C0000002
:1007600088B1816088B9F0EAFA95F1F787B18E7F98
:1007700087B98FE792E00197F1F700C00000C5014B
:100780000E946803C6010E946803C7010E946803B3
:10079000CE010E946803C8010E946803F501308100
:1007A000F6019081F70120818881930F920F980FB5
:1007B000F801208181E0921380E0DF91CF911F91B9
:1007C0000F91FF90EF90DF90CF90BF90AF90089582
:1007D0001092C10096E09093C2001092C5008093E1
:1007E000C4000895E1ECF0E0808188608083089582
:1007F000E1ECF0E08081806180830895E1ECF0E03D
:1008000080818068808308958091C00085FFFCCF3F
:1008100008958093C6000895EF92FF920F931F935F
:10082000CF937C01C0E007C00E940404F8018081DE
:100830000E940904CF5F87010C0F111DF801808110
:100840008111F2CFCF911F910F91FF90EF900895FA
:10085000FF920F931F93CF93DF9300D000D0CDB7BB
:10086000DEB74AE050E0BE016F5F7F4F90E00E942C
:100870008404F12C0CC00E940404E1E0F0E0EC0FD1
:10088000FD1FE00FF11F80810E940904F3940F2DDA
:1008900010E0E1E0F0E0EC0FFD1FE00FF11F8081C0
:1008A0008111E9CF0F900F900F900F90DF91CF91B2
:1008B0001F910F91FF90089597FB072E16F4009457
:1008C00007D077FD09D00E94700407FC05D03EF4E4
:1008D000909581959F4F0895709561957F4F0895EC
:1008E000AA1BBB1B51E107C0AA1FBB1FA617B70756
:1008F00010F0A61BB70B881F991F5A95A9F7809572
:100900009095BC01CD0108954532510520F4423047
:1009100010F00C948F04FB011082CB010895BB27CB
:100920004A3031F4992322F4BDE2909581959F4F8E
:100930000C949B04BB27FB015527AA27880F991FFE
:10094000AA1FA41710F0A41B83955051B9F7A05DFE
:10095000AA3308F0A95DA193009779F7B111B1937B
:100960001192CB010C94B404DC01FC01672F71914E
:100970007723E1F7329704C07C916D937083629185
:10098000AE17BF07C8F30895A1E21A2EAA1BBB1B1E
:10099000FD010DC0AA1FBB1FEE1FFF1FA217B3074B
:1009A000E407F50720F0A21BB30BE40BF50B661F61
:1009B000771F881F991F1A9469F760957095809525
:1009C00090959B01AC01BD01CF010895052E97FBC9
:1009D0001EF400940E94FD0457FD07D00E94C40439
:1009E00007FC03D04EF40C94FD04509540953095CF
:1009F00021953F4F4F4F5F4F08959095809570958B
:100A000061957F4F8F4F9F4F08952F923F924F9246
:100A10005F926F927F928F929F92AF92BF92CF928E
:100A2000DF92EF92FF920F931F93CF93DF93CDB797
:100A3000DEB7CA1BDB0B0FB6F894DEBF0FBECDBF0F
:100A400009942A88398848885F846E847D848C84E0
:100A50009B84AA84B984C884DF80EE80FD800C81E9
:100A60001B81AA81B981CE0FD11D0FB6F894DEBFCC
:0C0A70000FBECDBFED010895F894FFCF3C
:100A7C0050726573696F6E616E646F20532073657D
:100A8C002064657469656E652F7265616E7564614D
:100A9C0020656C2073697374656D610A0D00526575
:100AAC0063657063696F6E20646574656E696461FB
:100ABC000A0D00526563657063696F6E2072656123
:100ACC006E75646164610A0D0054454D503A200006
:100ADC0020202048554D454441443A20004665634A
:100AEC0068613A20002F00202020486F72613A2064
:100AFC00003A000A0D4552524F52204445204C45B5
:080B0C0043545552410A0D004B
:00000001FF
