:100000000C9454000C9471000C9471000C947100C9
:100010000C9471000C9471000C9471000C9471009C
:100020000C9471000C9471000C9471000C9471008C
:100030000C9471000C9471000C9471000C9471007C
:100040000C9471000C9471000C9471000C9471006C
:100050000C9471000C9471000C9471000C9471005C
:100060000C9471000C947100001F000000001F0030
:10007000001F101010101F00001F181818181F0064
:10008000001F1C1C1C1C1F00001F1E1E1E1E1F000C
:10009000001F1F1F1F1F1F0003070F1F0F07030055
:1000A000181C1E1F1E1C180011241FBECFEFD8E005
:1000B000DEBFCDBF11E0A0E0B1E0EEE7F6E002C0A8
:1000C00005900D92A030B107D9F721E0A0E0B1E092
:1000D00001C01D92A030B207E1F70E94E1020C942A
:1000E0003D030C94000084EA8093BC008091BC0026
:1000F0008823E4F708958093BB0084E88093BC00D4
:100100008091BC008823E4F70895811104C084EC39
:100110008093BC0003C084E88093BC008091BC0045
:100120008823E4F78091BB00089584E98093BC00A4
:10013000089565B1982F9074492F50E055954795D3
:10014000559547955595479555954795982F90788E
:10015000292F30E0022E232F000C221F330B000C1E
:10016000221F331F962F997F492B242B25B968B165
:10017000982F9071492F50E0559547955595479583
:1001800055954795982F9072292F30E035952795F2
:100190003595279535952795962F997F492B242BB3
:1001A00028B99BB192609BB99BB191609BB925ED39
:1001B0002A95F1F700009BB19E7F9BB99BB19D7F73
:1001C0009BB995ED9A95F1F7000065B120E1829F0A
:1001D000C0011124AC01407455275595479555959C
:1001E000479555954795559547959C012078332718
:1001F000022E232F000C221F330B000C221F331F53
:10020000362F397F432B242B25B948B19C0120710F
:100210003327359527953595279535952795807200
:100220009927959587959595879595958795942F79
:10023000997F292B822B88B98BB182608BB98BB1C6
:1002400081608BB985ED8A95F1F700008BB18E7FC7
:100250008BB98BB18D7F8BB995ED9A95F1F7000035
:10026000089565B1982F9074492F50E055954795A2
:10027000559547955595479555954795982F90785D
:10028000292F30E0022E232F000C221F330B000CED
:10029000221F331F962F997F492B242B25B968B134
:1002A000982F9071492F50E0559547955595479552
:1002B00055954795982F9072292F30E035952795C1
:1002C0003595279535952795962F997F492B242B82
:1002D00028B99BB191609BB9EFE9FFE03197F1F745
:1002E00000C000009BB19E7F9BB9EFE9FFE0319712
:1002F000F1F700C0000065B1F0E18F9FC00111244B
:10030000AC0140745527559547955595479555959A
:100310004795559547959C0120783327022E232F2A
:10032000000C221F330B000C221F331F362F397F86
:10033000432B242B25B948B19C01207133273595D7
:100340002795359527953595279580729927959509
:1003500087959595879595958795942F997F292BC6
:10036000822B88B98BB181608BB98FE99FE00197AF
:10037000F1F700C000008BB18E7F8BB9EFE9FFE091
:100380003197F1F700C00000089581E00E9431012B
:100390000895623031F0633031F0613029F4805CCF
:1003A00003C08C5E01C08C5A80680E9431010895A0
:1003B000EF92FF920F931F93CF93DF937C01862FD1
:1003C00090E0880F991F880F991F880F991F8064EC
:1003D000C0E0D0E00DC0F701EC0FFD1F149101E06B
:1003E000080F0E943101812F0E9499002196802FD1
:1003F000C830D10580F3DF91CF911F910F91FF900D
:10040000EF900895CF93DF938FE59AEE0197F1F780
:1004100000C0000085B1897F85B988B1897F88B91E
:100420001BB887B1866087B984B1866084B984B10E
:10043000866084B987B1866087B98AB183608AB9DA
:1004400085B1897F85B988B1866088B98BB18160B3
:100450008BB98FE99FE00197F1F700C000008BB1E5
:100460008E7F8BB98FE99FE00197F1F700C0000004
:1004700085B1897F85B988B1866088B98BB1816083
:100480008BB98FE99FE00197F1F700C000008BB1B5
:100490008E7F8BB98FE99FE00197F1F700C00000D4
:1004A00085B1897F85B988B1897F846088B98BB12E
:1004B00081608BB98FE99FE00197F1F700C00000E0
:1004C0008BB18E7F8BB98FE99FE00197F1F700C068
:1004D000000088E20E9431018CE00E94310160E05E
:1004E000C0E00AC0D1E0D60F8C2F90E088599F4F12
:1004F0000E94D801C85F6D2FC034A0F3DF91CF9167
:100500000895EF92FF920F931F93CF93DF9300D044
:1005100000D01F92CDB7DEB77B01FE01319625E0FA
:10052000DF011D922A95E9F724E030E00FC06AE070
:1005300070E00E941503E1E0F0E0EC0FFD1FE20F18
:10054000F31F8083862F972F21503109009779F769
:10055000BFEFEB16FB0681F403C00F5F1F4F02C015
:1005600000E010E0E1E0F0E0EC0FFD1FE00FF11F14
:100570002081222391F304C005E010E00E191F0929
:10058000992384F48DE20E9499000CC0E1E0F0E030
:10059000EC0FFD1FE00FF11F8081805D0E9499002C
:1005A0000F5F1F4F053011058CF30F900F900F90C8
:1005B0000F900F90DF91CF911F910F91FF90EF90CF
:1005C00008950E9402020E94C50160E080E00E943E
:1005D000C9010E94C50160E080E00E94C9010E943B
:1005E000730081ED90E00E947B0088E090E00E9423
:1005F0008500C82F0E9495009C2F9F70C077CC0F5C
:100600008C2F880F880FC80F892F8C0F62E070E045
:1006100090E00E9481022FEF83ED90E32150804013
:100620009040E1F700C00000D4CF97FB072E16F4EE
:10063000009407D077FD09D00E94290307FC05D05C
:100640003EF4909581959F4F0895709561957F4FE9
:100650000895AA1BBB1B51E107C0AA1FBB1FA61709
:10066000B70710F0A61BB70B881F991F5A95A9F75B
:0E06700080959095BC01CD010895F894FFCFC0
:00000001FF
