S0100000456E7472656761332E737265631B
S11300000C9434000C9451000C9451000C94510045
S11300100C9451000C9451000C9451000C94510018
S11300200C9451000C9451000C9451000C94510008
S11300300C9451000C9451000C9451000C945100F8
S11300400C9451000C9451000C9422010C94510016
S11300500C9451000C9451000C9451000C945100D8
S11300600C9451000C94510011241FBECFEFD8E022
S1130070DEBFCDBF11E0A0E0B1E0E0EDF4E002C0EE
S113008005900D92A638B107D9F721E0A6E8B1E0B2
S113009001C01D92A838B207E1F70E94A5000C9494
S11300A066020C94000084EA8093BC008091BC003A
S11300B08823E4F708958093BB0084E88093BC0010
S11300C08091BC008823E4F70895811104C084EC76
S11300D08093BC0003C084E88093BC008091BC0082
S11300E08823E4F78091BB00089584E98093BC00E1
S11300F0089587E60E94B2010E94BC010E94C201D9
S113010080E091E00E94D6010E94C801789408958D
S1130110809187018823C1F080918701833791F40E
S113012081E090918601911180E08093860188237B
S113013029F08EE291E00E94D60104C083E491E0AC
S11301400E94D601109287010895CF93DF9300D0C7
S113015000D01F92CDB7DEB70E9479000E948800BC
S1130160809186018111FACF8E010B5F1F4F9E0192
S11301702C5F3F4FAE014D5F5F4FBE016E5F7F4FFF
S1130180CE0101960E945601F82E0E94530081ED83
S113019090E00E945B0080E090E00E945B0081E0C0
S11301A090E00E946500082F81E090E00E946500C5
S11301B0182F81E090E00E94650081E090E00E94A9
S11301C0650081E090E00E94650081E090E00E947B
S11301D0650081E090E00E9465000E9475000F7741
S11301E01F77FF2009F189E591E00E94D6018B81F8
S11301F00E94F20180E691E00E94D60189810E946A
S1130200F20186E591E00E94D6018CE691E00E941D
S1130210D601802F0E94F201812F0E94F20186E50F
S113022091E00E94D60104C083E791E00E94D601C8
S11302302FEF83ED90E3215080409040E1F700C020
S113024000008CCF1F920F920FB60F9211248F9340
S11302508091C600809387018F910F900FBE0F90FD
S11302601F901895FC01108220E030E01BC0309BE9
S1130270FECF85ED8A95F1F70000309B11C067E051
S113028070E0621B730B41E050E002C0440F551F45
S11302906A95E2F78081482B408380EA8A95F1F7DA
S11302A02F5F3F4F2830310514F30895AF92BF926A
S11302B0CF92DF92EF92FF920F931F93CF93DF932E
S11302C05C016B017A01E90187B1816087B988B16A
S11302D0816088B92AE12A95F1F700C088B18E7F40
S11302E088B98FEF90EEE0E081509040E040E1F774
S11302F000C0000088B1816088B9F0EAFA95F1F78E
S113030087B18E7F87B98FE792E00197F1F700C03C
S11303100000C5010E943201C6010E943201C701DA
S11303200E943201CE010E943201C8010E943201B2
S1130330F5013081F6019081F70120818881930FC6
S1130340920F980FF801208181E0921380E0DF91F1
S1130350CF911F910F91FF90EF90DF90CF90BF90BE
S1130360AF9008951092C10096E09093C20010924D
S1130370C5008093C4000895E1ECF0E080818860BA
S113038080830895E1ECF0E08081806180830895AA
S1130390E1ECF0E080818068808308958091C00062
S11303A085FFFCCF08958093C6000895EF92FF92D5
S11303B00F931F93CF937C01C0E007C00E94CE012E
S11303C0F80180810E94D301CF5F87010C0F111DBA
S11303D0F80180818111F2CFCF911F910F91FF908D
S11303E0EF900895FF920F931F93CF93DF9300D064
S11303F000D0CDB7DEB74AE050E0BE016F5F7F4F5B
S113040090E00E942602F12C0CC00E94CE01E1E093
S1130410F0E0EC0FFD1FE00FF11F80810E94D3017B
S1130420F3940F2D10E0E1E0F0E0EC0FFD1FE00F7E
S1130430F11F80818111E9CF0F900F900F900F90E1
S1130440DF91CF911F910F91FF900895453251058F
S113045020F4423010F00C943102FB011082CB01E5
S11304600895BB274A3031F4992322F4BDE29095D4
S113047081959F4F0C943D02BB27FB015527AA276A
S1130480880F991FAA1FA41710F0A41B839550511D
S1130490B9F7A05DAA3308F0A95DA193009779F795
S11304A0B111B1931192CB010C945602DC01FC0101
S11304B0672F71917723E1F7329704C07C916D9394
S11304C070836291AE17BF07C8F30895F894FFCF05
S11304D050726573696F6E616E646F20532073652B
S11304E02064657469656E652F7265616E756461FB
S11304F020656C2073697374656D610A0D00526523
S113050063657063696F6E20646574656E696461A8
S11305100A0D00526563657063696F6E20726561D0
S11305206E75646164610A0D0054454D503A2000B3
S11305300A0D48554D454441443A2000486F7261C4
S11305403A20000A0D4552524F52204445204C4552
S109055043545552410022
S9030000FC
