S0100000456E7472656761332E737265631B
S11300000C9454000C9469000C9469000C946900DD
S11300100C9469000C9469000C9469000C946900B8
S11300200C9469000C9469000C9469000C946900A8
S11300300C9469000C9469000C9469000C94690098
S11300400C9469000C9469000C9469000C94690088
S11300500C9469000C9469000C9469000C94690078
S11300600C9469000C946900001F000000001F003C
S1130070001F101010101F00001F181818181F0060
S1130080001F1C1C1C1C1F00001F1E1E1E1E1F0008
S1130090001F1F1F1F1F1F0003070F1F0F07030051
S11300A0181C1E1F1E1C180011241FBECFEFD8E001
S11300B0DEBFCDBF11E0A0E0B1E0E8EDF7E002C0A3
S11300C005900D92A631B107D9F70E945F030C94F5
S11300D0EA030C94000065B1982F9074492F50E006
S11300E055954795559547955595479555954795F4
S11300F0982F9078292F30E0022E232F000C221FF6
S1130100330B000C221F331F962F997F492B242B6E
S113011025B968B1982F9071492F50E055954795AE
S11301205595479555954795982F9072292F30E00E
S1130130359527953595279535952795962F997F4C
S1130140492B242B28B99BB192609BB99BB1916038
S11301509BB925ED2A95F1F700009BB19E7F9BB9D1
S11301609BB19D7F9BB995ED9A95F1F7000065B120
S113017020E1829FC0011124AC014074552755959C
S113018047955595479555954795559547959C01A0
S113019020783327022E232F000C221F330B000C50
S11301A0221F331F362F397F432B242B25B948B107
S11301B09C012071332735952795359527953595DD
S11301C02795807299279595879595958795959507
S11301D08795942F997F292B822B88B98BB18260C4
S11301E08BB98BB181608BB985ED8A95F1F70000ED
S11301F08BB18E7F8BB98BB18D7F8BB995ED9A9531
S1130200F1F70000089565B1982F9074492F50E0DC
S113021055954795559547955595479555954795C2
S1130220982F9078292F30E0022E232F000C221FC4
S1130230330B000C221F331F962F997F492B242B3D
S113024025B968B1982F9071492F50E0559547957D
S11302505595479555954795982F9072292F30E0DD
S1130260359527953595279535952795962F997F1B
S1130270492B242B28B99BB191609BB9EFE9FFE08E
S11302803197F1F700C000009BB19E7F9BB9EFE965
S1130290FFE03197F1F700C0000065B1F0E18F9FF6
S11302A0C0011124AC0140745527559547955595C7
S11302B0479555954795559547959C012078332743
S11302C0022E232F000C221F330B000C221F331F7E
S11302D0362F397F432B242B25B948B19C0120713B
S11302E0332735952795359527953595279580722C
S11302F09927959587959595879595958795942FA5
S1130300997F292B822B88B98BB181608BB98FE9B6
S11303109FE00197F1F700C000008BB18E7F8BB98D
S1130320EFE9FFE03197F1F700C00000089581E0A4
S11303300E94030108950F931F93CF93DF930097B7
S113034069F0D62F8C01C0E007C0F801EC0FF11D55
S113035080810E946B00CF5FCD17B8F3DF91CF91FE
S11303601F910F910895623031F0633031F06130A4
S113037029F4805C03C08C5E01C08C5A80680E94A2
S113038003010895EF92FF920F931F93CF93DF938E
S11303907C01862F90E0880F991F880F991F880F82
S11303A0991F8064C0E0D0E00DC0F701EC0FFD1F81
S11303B0149101E0080F0E940301812F0E946B0039
S11303C02196802FC830D10580F3DF91CF911F9102
S11303D00F91FF90EF900895CF93DF938FE59AEEFE
S11303E00197F1F700C0000085B1897F85B988B114
S11303F0897F88B91BB887B1866087B984B1866064
S113040084B984B1866084B987B1866087B98AB1BA
S113041083608AB985B1897F85B988B1866088B9D6
S11304208BB181608BB98FE99FE00197F1F700C030
S113043000008BB18E7F8BB98FE99FE00197F1F7B4
S113044000C0000085B1897F85B988B1866088B90C
S11304508BB181608BB98FE99FE00197F1F700C000
S113046000008BB18E7F8BB98FE99FE00197F1F784
S113047000C0000085B1897F85B988B1897F846017
S113048088B98BB181608BB98FE99FE00197F1F74F
S113049000C000008BB18E7F8BB98FE99FE001977C
S11304A0F1F700C0000088E20E9403018CE00E9482
S11304B0030160E0C0E00AC0D1E0D60F8C2F90E0C9
S11304C088599F4F0E94C201C85F6D2FC034A0F3AA
S11304D0DF91CF910895EF92FF920F931F93CF93E3
S11304E0DF9300D000D01F92CDB7DEB77B01FE01B1
S11304F0319625E0DF011D922A95E9F724E030E0EA
S11305000FC06AE070E00E94C203E1E0F0E0EC0F8B
S1130510FD1FE20FF31F8083862F972F215031098F
S1130520009779F7BFEFEB16FB0681F403C00F5F6A
S11305301F4F02C000E010E0E1E0F0E0EC0FFD1F0F
S1130540E00FF11F2081222391F304C005E010E0A5
S11305500E191F09992384F48DE20E946B000CC0CC
S1130560E1E0F0E0EC0FFD1FE00FF11F8081805D02
S11305700E946B000F5F1F4F053011058CF30F9025
S11305800F900F900F900F90DF91CF911F910F91CB
S1130590FF90EF900895FC01108280E090E020E04D
S11305A030E01BC046B101964DE04A95F1F70000DA
S11305B0309B11C068E070E0621B730B41E050E0B7
S11305C002C0440F551F6A95E2F75081452B4083C2
S11305D04AE04A95F1F72F5F3F4F2830310514F375
S11305E061E070E00E946B0208950F931F93CF9314
S11305F0DF93CDB7DEB72A970FB6F894DEBF0FBEF0
S1130600CDBF9A8389837C836B835E834D833887D4
S11306102F831A87098787B1816087B988B1816080
S113062088B900C000C0000088B18E7F88B983E912
S113063091E10197F1F700C0000088B1816088B9A9
S113064087B18E7F87B93099FECF3099FECF86B1BE
S1130650182F117080FDFBCF95E39A95F1F70000F8
S1130660CE0101960E94CB02CE0103960E94CB02DA
S1130670CE0105960E94CB02CE0107960E94CB02C2
S1130680CE0109960E94CB02E981FA812081ED8195
S1130690FE81808190E0820F911D29853A85821721
S11306A0930709F411E0812F2A960FB6F894DEBF60
S11306B00FBECDBFDF91CF911F910F910895CF93BE
S11306C0DF9300D000D01F92CDB7DEB787B18E7F05
S11306D087B90E94EC010E94970160E080E00E94CB
S11306E0B30163E080E091E00E949B018E010B5F07
S11306F01F4F9E012C5F3F4FAE014D5F5F4FBE0108
S11307006E5F7F4FCE0101960E94F50266E084E0A1
S113071091E00E949B018B8162E070E090E00E9476
S11307206B028CE20E946B008C8162E070E090E0CE
S11307300E946B0261E080E00E94B30169E08BE0FB
S113074091E00E949B01898162E070E090E00E9448
S11307506B028CE20E946B008A8162E070E090E0A0
S11307600E946B022FE78AE196E02150804090407E
S1130770E1F700C000000E94970160E080E00E9461
S1130780B301B4CF97FB072E16F4009407D077FD7E
S113079009D00E94D60307FC05D03EF490958195BC
S11307A09F4F0895709561957F4F0895AA1BBB1BB9
S11307B051E107C0AA1FBB1FA617B70710F0A61B5D
S11307C0B70B881F991F5A95A9F780959095BC017E
S10B07D0CD010895F894FFCF58
S11307D86173640054454D503A200048554D4544D2
S10907E841443A20000028
S9030000FC
